:020000040000fa
:080000000001040000000000f3
:020000040000fa
:100008001004000010040000100400001004000098
:100018001004000010040000100400001004000088
:1000280010040000100400001004000094010000f7
:10003800100400001004000010040000f202000088
:1000480010040000e6080000160900001004000073
:100058001004000010040000100400001004000048
:100068001004000010040000100400001004000038
:100078001004000010040000100400001004000028
:10008800880d0000b80d00001004000010040000e6
:100098001004000010040000100400001004000008
:1000a80010040000100400001004000010040000f8
:1000b80010040000100400001004000010040000e8
:1000c80010040000100400001004000010040000d8
:1000d80010040000100400001004000010040000c8
:1000e80010040000100400001004000010040000b8
:0800f8001004000010040000d8
:020000040000fa
:100108001004000010040000100400001004000097
:100118001004000010040000100400001004000087
:1001280010040000100400001004000094010000f6
:10013800100400001004000010040000f202000087
:1001480010040000e6080000160900001004000072
:100158001004000010040000100400001004000047
:100168001004000010040000100400001004000037
:100178001004000010040000100400001004000027
:10018800880d0000b80d00001004000010040000e5
:100198001004000010040000100400001004000007
:1001a80010040000100400001004000010040000f7
:1001b80010040000100400001004000010040000e7
:1001c80010040000100400001004000010040000d7
:1001d80010040000100400001004000010040000c7
:1001e80010040000100400001004000010040000b7
:0801f8001004000010040000d7
:020000040000fa
:100200002f9920000eff20000e0188000000000042
:1002100000012000200288000c000700405021004f
:100220000100200011000700000020000000e00095
:10023000020032000000020000000000121702005d
:10024000000000000040da000000fe004440a90069
:10025000800d20000000e0000300320000002000bc
:10026000a00188004440a800000006009101880019
:10027000800078000000eb0015003700e2804000ad
:1002800032a0b4009101ba00e280400032a0b40074
:100290009102ba00e280400032a0b4000002eb00fc
:1002a000472bde00f507b200602ce10004003a00a5
:1002b0000059eb008301e900fdff3e000400370018
:1002c0006128e100010032000082eb000400070019
:1002d0001101ba000200e000e8ff3a000000060049
:1002e0003159ba008301e9000c0032002159ba00eb
:1002f0008301e900080032000400e00003003a0036
:10030000e280400032a0b400f5ff370011d9ba00f6
:100310008301e900faff3a008100e800e180400033
:1003200032a0b40000000600801f7800849fbe0049
:100330003400f80000002000a00188000600fa0048
:100340008460a900d44b8000e54b8000048fbe0080
:10035000e598200095427800454798002400200049
:10036000050020001e0f42005e974a004e4290009a
:100370000442b00044479800ce429000c4c7b30086
:1003800084cf520008003600ce42900034c8b3003b
:1003900004c24200444798001400200005002000d9
:1003a0001e0f42005e974a004e4090008ee9b70053
:1003b0001e02be00d44b8800e54b8800b44b800081
:1003c000c54b800061024200e0824a00b44b8800c5
:1003d000c54b88000080fa003400f9004f02be00cf
:1003e0004f007800004006000400fa0083c0a80017
:1003f000d44b8000e54b8000048fbe0083c0a90071
:100400001e02be000400be000080fa0000000600cc
:100410000600fa0083c0a800b44b8000c54b8000e2
:10042000048fbe0004088000444798002404800024
:1004300068026200e00f5200070032004e42900056
:10044000e14f4200040032001400200005002000ab
:100450001e0f42005e974a0083c0a9008460a90075
:100460001e02be00482bdd00c823de008703730098
:100470004823dd004e4290000482fb00050020006e
:100480000602420087824a000402420085824a0036
:100490000400be000080fa00000006000400fa001c
:1004a000008fbe009e0290008432270004aab9008b
:1004b000040378001e0278006022b900040278006c
:1004c000040343009e02780084322700042ab80007
:1004d00005034300860278000400be00430a0700bb
:1004e0000080fa00000006000200fa00000f780009
:1004f0001e027800050020007d2bb900060378005d
:100500006020b9008003780007034300840278006c
:10051000d4012000042ab8000503430086027800b5
:100520000400be00310a07000080fa000000060047
:100530000000fa000082eb00441588000002eb0086
:10054000141688000002eb00441688000002eb003d
:10055000741688000002eb00a41688000002eb006d
:1005600004178800c162a800f4ff21003416880037
:10057000cda2a800cdc2a800cde2a800343c200046
:1005800094168800f4072000f41688000082eb001f
:1005900014088800240880000440a1000450a10031
:1005a00024088800a404800004c0a00004d0a10096
:1005b00004e0a100a40488008460a90005e1a8006b
:1005c0008c60a8004406200064088800840880002d
:1005d0000440a0000450a100840888000080fa00b4
:1005e000000006003600f800809fbe00829fbe001b
:1005f000849fbe00869fbe003400f80000002000eb
:10060000a00188000000fa0084e0a900844c80006a
:1006100054088800344c8000454c8000e00f5200a4
:10062000e08f5a0010003200d49820001442780065
:100630000440780024080700344c8000454c8000ba
:10064000e00f5200e08f5a000d003400344c80005f
:10065000454c800061025200e0825a00344c880010
:10066000454c8800060037005e000700d498200043
:10067000144278008040eb0004407800b707070080
:100680000080fa003400f9004f03be004f02be00a4
:100690004f01be004f00be003600f90000400600ca
:1006a0000000fa0084e0a900b404800004c0a000a7
:1006b00004d0a10004e0a100b40488000082eb0093
:1006c00074088800940880000440a0000450a10031
:1006d0009408880013e1a8000080fa0000000600da
:1006e0000c00fa0040479800310798004207980034
:1006f000530798006022b800048fbe004e4090005f
:100700008de9b700e6ff0700d49820001442780076
:1007100011c0b30004407800350707003e02900086
:10072000050020000401be0080a8230081032000f2
:10073000b80107000002be0004027800844c880063
:10074000844c80000482ea00844c88004e029000b1
:10075000de029000e00f5200e08f5a0016003200d7
:100760003e02900004024200050020004e0390006b
:1007700005b3b90006037800de03900004b8b900a1
:10078000800378000703430004027800ce02900043
:100790000522b8000503430086027800823e20004f
:1007a000030020000400be009a0107000002be0002
:1007b000048fbe00030037000082eb008082eb0054
:1007c000048fbe00844c8000540888001e02be00c6
:1007d000344c8800454c88008ce0a8000080fa006a
:1007e000000006000000fa008ce0a90013e1a90057
:1007f0000080fa00000006000200fa00004f7800b6
:10080000f8ff0700d4982000144278008040eb00e5
:1008100004407800510707000080fa00000006003d
:100820000040da000000fe0003f0a200889fbe0036
:100830008a9fbe008c1f78002a0107003101330017
:100840006450e1004f0032006420e10052003200a9
:1008500003826c0007003b000905d0000306d000ae
:10086000820f54000c065d000200390002003200c5
:1008700089017800030678008582550004003d0058
:100880000003fd008103fd008502ea008b85420024
:10089000840f720002003b0060001000e08018002e
:1008a0006011b8000005eb007a28e1000a00390069
:1008b00006007800c75ddd00f707b200878075008d
:1008c0002d003700828171000a0178006105600007
:1008d0008180d1000080d3008502e900f9ff3b0050
:1008e000060440008784480002003b0060041400b6
:1008f000e0841c000988a300070032008a8171008f
:1009000082817100610164008904d1000884d300f0
:100910008b05e800170037000978a30013003a00a0
:100920000b00e000130034008b05e90008044400cc
:1009300089844c000a4474000978a3000d003a0031
:100940000b00e000070034008b05e90008044400b8
:1009500089844c0001003a000b0020000978a300b4
:10096000f7ff32000001eb000200370082817100c6
:100970000a017800a00007000cf0a70001f0a00019
:10098000e90037006420e10002003a00838f6c0028
:10099000e90033000801be000200be00e20037009b
:1009a000889fbe008a9fbe008c1f7800cd00070084
:1009b000d400330003866c006450e1002e00320046
:1009c0006420e100330032006150e1002f0032006a
:1009d0006120e1003100320085855500eb07b00051
:1009e0000900200008042000050037000804440026
:1009f00089844c000a0031000603430087834b00c2
:100a00000001530081815b00f8ff33000203be0048
:100a10000800a0000804440089844c00f6ff390057
:100a2000c639dd008301730001003200130020008d
:100a30008904d1000884d3000998a300050032007e
:100a40000800a7000300a0008904d1000884d30097
:100a50008b05e8008904d1000884d3000001eb0075
:100a60000281d2006400070001f0a1000cf0a70091
:100a700001f0a000ac0037006420e100ae003200bd
:100a80000801be000200be00f7ff37006120e10050
:100a9000a90032006000b800f3ff3700000020001a
:100aa00001f82700f0ff3700839f68000100e00095
:100ab00002003d0060001000e08018000300e0002c
:100ac00002003d0060011100e0811900d100070023
:100ad0004f00e00002003b0060001000e0801800c2
:100ae0000000060014002000da003700f4ff2f0099
:100af000d80037000001be00650007000470a700a1
:100b000003f0a1006509b100160032000d003500a8
:100b10006828e10006003500f0ff2f00f1ff2700f4
:100b20000300e00013003b00010028000000050066
:100b300000004000818048008502e900fcff3a0087
:100b400008003700f88f420002003c008000eb00f4
:100b5000000005008100d1000080d3008502e8007c
:100b6000fcff3a000300e00002003b0060001000c0
:100b7000e0801800000006000001be0044000700ed
:100b80000470a70003f0a10003f8a30013003a00cb
:100b90006509b10010003200090035006928e10044
:100ba00002003500010028000000050000004000a0
:100bb000818048008502e900fcff3a000000060041
:100bc000f88f4200050035008100d1000080d3007d
:100bd0008502e800fcff3a00000006008000eb0000
:100be000000005004f89de0082017800b400370064
:100bf0006011b800c20037008100200061805500fc
:100c00000b003d000b00200061fe2f000100e10001
:100c10001d00340082817100610164008904d100eb
:100c20000884d3000000e800faff3a0071002000b9
:100c300061006400030070000200600009003200df
:100c400061044400e0844c000988a50005003200de
:100c50008b05e8006808e10002003a008904d10031
:100c60000884d300f20f20000258e10005003d0087
:100c7000c75ddd00f907b2008980750008007800c3
:100c8000000006000bf827008b007800000005002c
:100c9000c70ade00f107b200f50fb200080032000b
:100ca000e1cf4200020032000170a00024000500e4
:100cb000810f7000010032000408050044000500a7
:100cc000810f700002003a00140005008502e9005f
:100cd0000000400081c04800fcff3b000170a00004
:100ce000240005000004be00e9ff07000003be0069
:100cf0000405be000200be00e5ff0700844f75003a
:100d0000000006000200be006450e100050036004d
:100d10006420e100020036000968a30001003a00e7
:100d20000800be000160a0004f0678004f05be001d
:100d30004f04be0000000600f0ff2f00f1ff270067
:100d4000f9ff3700889fbe008a9fbe008c1f780085
:100d5000e4ff0700ebff330003866c006450e10002
:100d6000240032006420e100270032006150e100dd
:100d7000220032006120e100210032008b85420018
:100d8000eb07b1000134b800003ab8000804420093
:100d900089844a00013ab8000030b80088804000d9
:100da00009014a000400330000004000818048002f
:100db000020149008b05e900c909dd0083017000cb
:100dc0000100320013002000c814de004814dd00ca
:100dd0004709de001200b200c808de000884700077
:100de00085ff070001f0a1000cf0a70001f0a000b2
:100df000cdff37006120e100cfff32000801be00c7
:100e00000200be00f7ff37006150e100fcff3a002e
:100e1000c9ff37006022b800060220000000d000a1
:100e20008180d2000482d2008582d2000000a0001e
:100e30000202520083825a00030031000202420083
:100e400083824a000000a1000603e900f3ff3a0094
:100e500000000600889fbe008a9fbe00841f7800a5
:100e6000a0ff07004f00780011003300f0ff2f00b3
:100e7000838f6c0006003b00040565000a00a70094
:100e80000800370009f0a600100020000800370015
:100e9000820f5400838f5c00030039001000200093
:100ea00001003e000000200009f0a7000000ea0059
:100eb0004f05be004f04be000000e0000000060029
:100ec000881f7800030478000300e00007003d005d
:100ed00060001000e080180060011900e081190036
:100ee00002003b0001f02d00030037000400070062
:100ef00008f0a70001f0a0004f04780000000600f1
:100f0000889fbe008a9fbe000082700004027100ac
:100f100004827100260032000004be000200be0000
:100f20006011b8006b092000950220000182cf00fb
:100f30000a0039000541b1000082cf0007003900e6
:100f40000541b1000982cf00040039000541b1001c
:100f50000882cf00010039000541b100054252006e
:100f6000120032000a003b008281710061016400be
:100f70008100d1000080d3008984d3000884d3008d
:100f80008b05e8000442e800f7ff3a00070037004d
:100f90000804440089844c00000048008180480017
:100fa0008b05e9000442e900f9ff3a0012ff07004f
:0c0fb0004f05be004f04be00000006000c
:020000040000fa
:100fbc000000000002020000020200000202000019
:100fcc000202000002000000000000000303000009
:100fdc0003010000040400000000000004040000f1
:100fec0006060000060600000606000006000000cb
:100ffc0000040000040200000202000002000000d5
:10100c0000000000000000000000000001000000d3
:10101c0002000000040000000800000010000000a6
:10102c0020000000400000008000000000010000d3
:10103c000000000000000000000000000080000024
:10104c00002000000040000000080000000200002a
:10105c000800000000000000000000000400000078
:10106c000001000040000000080000000400000027
:10107c002000000010000000020000000100000031
:10108c000000000000000000020000000100000051
:10109c000010000000080000000400000002000026
:1010ac000000000000000000000000000000000034
:1010bc000000000000000000000000000000000024
:1010cc000000000000000000000000000004000010
:1010dc000000000003000000000000000000000001
:1010ec0000000000000000000002000001000000f1
:1010fc0000000000000000000000000000000000e4
:10110c0000000000000000000000000000000000d3
:10111c0000000000000000000000000000000000c3
:10112c0000040000000000000300000000000000ac
:10113c0000000000000000000000000000020000a1
:10114c000100000000000000000000000000000092
:10115c006f760000660000006f76000066000000ed
:020000040000fa
:10116c000600fa0020479800210798002e029000f4
:10117c00042290000402e80084027800f4032000aa
:10118c00048f62009e0278002e02900014229000c0
:10119c00848f5200080032002e029000042290002e
:1011ac00ae0290002e43900086727a009e02780068
:1011bc002e029000052298000080fa000000060024
:1011cc003600f800809fbe00829fbe00849fbe0048
:1011dc00869fbe003400f80000002000a0018800ab
:1011ec000200fa008520a90094108000044f7800ba
:1011fc00018020001e407800d9ff07000e22a900b4
:10120c000080fa003400f9004f03be004f02be000c
:10121c004f01be004f00be003600f9000040060032
:10122c00849fbe003400f80004002000a401880054
:10123c000200fa008540a900254480003444800057
:10124c00848f520002003a008d40a9000c00370038
:10125c00354480004484200004824200144f7800fe
:10126c00344480008402e800f4032000048262000d
:10127c00344488009e4278000582fb00841088006c
:10128c000080fa003400f9004f02be000040060056
:10129c000200fa0051fc07000002be00244b88003b
:1012ac00354b88008b00070000027800040f780093
:1012bc001e027800e00f5200020035001e0278007a
:1012cc000c00370045fc07000003be00244b8000d7
:1012dc00354b80000403530085835b00044b800076
:1012ec00154b8000840f5300858f5b00edff390098
:1012fc000082eb00040078000080fa000000060079
:10130c000400fa00008fbe001e02be00044b8800d1
:10131c00154b88000080fa00000006000400fa005b
:10132c00000f7800110798001e027800d44a88003c
:10133c001e029000e44a88000080fa0000000600bb
:10134c000400fa00008fbe004184200000802000c1
:10135c00f2ff07001e03be00443add00cc32de0073
:10136c00850272004432dd000401be0000442d00f1
:10137c00111c2000a4fe07000002be000400be00e9
:10138c0018fe07000002be000200200003f023003c
:10139c000400be0021fd07000002be000400be00d8
:1013ac00f2fd07000002be0004027800a4108800c1
:1013bc00c40480000440a1000450a1000460a000fb
:1013cc00c4048800741080000460a1000470a100a3
:1013dc00741088008d20a8008520a9000e22a90079
:1013ec00c40480000480a1000490a10004a0a0000b
:1013fc00c40488000fe2a9008d40a9008540a90013
:10140c000d42a9000de2a8000f42a8000080fa00ce
:10141c00000006000000fa0000000000e44a800012
:10142c0084229000e44a800014229000848f5200a1
:10143c00faff3a008d20a9008d40a9000f42a900a7
:10144c000de2a900d44a8000d54a80009522900074
:10145c00052298000080fa00000006000000fa0047
:10146c00d44a800084229000d44a80001422900038
:10147c00048252000404b00084027800f4032000bb
:10148c0004826200040078000080fa00000006006c
:10149c000000fa00d44a800084229000d44a8000d4
:1014ac0014229000848f520002003a000082eb005c
:1014bc0005003700d54a8000d44a800014229000e1
:1014cc0065427a000482fb00040078000080fa0078
:1014dc00000006000200fa00d44a8000842290002a
:1014ec00d44a800014229000848f520002003a00eb
:1014fc000082eb000d003700d54a8000d44a8000f2
:10150c0014229000654f7a00d44a8000d54a80009e
:10151c00952290000503e800f50320008502630086
:10152c00152298009e4278000582fb00040078008a
:10153c000080fa00000006000800fa00200798005e
:10154c00310798000002eb00040f78000e00370002
:10155c004fff070000027800140798001e0290004d
:10156c00e00f52000d0035001e029000044278007e
:10157c00ae029000844a78002e0290000402e8002b
:10158c00240798001e0fe8003e0290009e0278008f
:10159c00848f5200eeff390001003700000000007c
:1015ac001e027800040078000080fa00000006009b
:1015bc000a00fa004047980031079800420798004b
:1015cc004e029000e00f520002003a000002eb00c5
:1015dc001b0037000002eb00040f780013003700eb
:1015ec002bff070000027800140798001e029000e1
:1015fc00e00f5200110035004e4290008402fb00b7
:10160c001e029000848f52000c0032001e029000cb
:10161c0004427800be029000844a78003e0290009a
:10162c000402e800340798001e0fe8004e029000f8
:10163c009e027800848f5200e9ff39001e02780068
:10164c00040078000080fa00000006000000fa0098
:10165c0000000000f44a8000e00f52000500320048
:10166c00751080000410200004826200e00f52000c
:10167c00f8ff32000002eb00f44a88000080fa0008
:10168c00000006000400fa0020479800e44a80009d
:10169c00042290000402e80084027800f403200085
:1016ac00048f6200000000009e027800e44a800073
:1016bc0014229000848f5200fbff3200e54a800018
:1016cc00e44a8000042290002e43900086727a0037
:1016dc00e44a80009e027800052298008540a8000c
:1016ec008d40a80014002000f44a8800140020004b
:1016fc00040078000080fa00000006000200fa00e6
:10170c00000f7800050037001e02780014427800a4
:10171c001e0fe80004407800daff07001e02780074
:10172c0014427800e04f5200f7ff3a000080fa00b4
:10173c00000006002e00fa00401798005117980080
:10174c00426f98006702470005022000050f420017
:10175c009e0278000042eb00844a78004e6a9000aa
:10176c00e14f520002003e00a4c0b300446f980049
:10177c004e129000de129000140798002507980076
:10178c004e6a90000482fb00050020000401be009c
:10179c004e109000de109000c0fc07000002be004e
:1017ac0044179800551798001e02900004437800c7
:1017bc004e129000844278004e6a90000482fb0026
:1017cc0005a2b900040278000442780004425300d8
:1017dc00644798001e0fe9006e429000e94f5200da
:1017ec0003003c006e4290000443b000020037003e
:1017fc006e4290007443b0009e027800844a7800d8
:10180c004e129000de129000e00f5200e08f5a0052
:10181c00d7ff3a00050037001e027800144278000a
:10182c001e0fe8000440780096ff07001e027800a7
:10183c0014427800e04f5200f7ff3a000080fa00a3
:10184c00000006001600fa00881f7800000f9800b0
:10185c00110f98004257980018c0b300f2ff2f00e8
:10186c00f3f724000e0890009e0890009cfc0700e3
:10187c0000027800e00f520001003c000044eb0035
:10188c00e04f540003003200e08a28009bff070061
:10189c008100370018c0b300f2ff2f00f3f72c00c3
:1018ac000e0890009e0890008bfc07000002780048
:1018bc00e00f5200010035000044eb00e04f5400f3
:1018cc0003003200e08a28008cff0700720037000a
:1018dc0018c0b3006011b8000e0890009e0890006c
:1018ec007dfc070000027800e00f5200010035007b
:1018fc000044eb00e04f540007003200d0c2b300ac
:10190c0060ff07000e0a90009e0a900005f0a200ee
:10191c00040f9800150f98000400200005f0230018
:10192c00048fbe000042eb004447980009003700ca
:10193c0002002000031224001e00be0015fc07004c
:10194c000002be00048fbe004e4290000442e8002c
:10195c0044479800ce4290004e52900084cf5200e3
:10196c00f3ff39001e01be000e0890009e08900087
:10197c00abfb07000002be00040f9800150f980087
:10198c000e0890009e08900078fc07000002be0034
:10199c0054079800650798005e009000ee009000d8
:1019ac0090fc07000002be000401be000e0890006f
:1019bc009e08900099fb07000002be0034079800b7
:1019cc00450798005e029000ee029000a2c0b300a2
:1019dc000400be0057ff07004e529000e04f52002b
:1019ec0022003200e0c2b30026ff070020003700bf
:1019fc0002002000031224003e009000ce00900054
:101a0c00cdfc07000002be00340798004507980083
:101a1c003e009000ce00900033fc07000002be0098
:101a2c00740798007e029000cfa2de00a2c0b30023
:101a3c000400be003fff07007e029000cfa2de0034
:101a4c000400be0064fc07000002be000401be00de
:101a5c003e009000ce00900070fb07000002be001c
:101a6c00340798004507980001003700000000007b
:101a7c004e5290000482fb000402ea004f22de006a
:101a8c0004427800ce5290008542e90045579800f8
:101a9c00e04f5200d6ff3a004f0478000080fa0065
:101aac00000006000600fa00204798002107980065
:101abc002e029000042290000402e80084027800b8
:101acc00f4032000048f62009e0278002e02900026
:101adc0014229000848f5200080032002e029000d5
:101aec0004229000ae0290002e43900086727a0081
:101afc009e0278002e029000052298000080fa00c9
:101b0c00000006003600f800809fbe00829fbe00d9
:101b1c00849fbe00869fbe003400f80000002000a9
:101b2c00a00188000200fa008700a900e4108000e0
:101b3c00044f7800818820001e407800d9ff0700f0
:101b4c001822a9000080fa003400f9004f03be00ef
:101b5c004f02be004f01be004f00be003600f90020
:101b6c0000400600849fbe003400f80004002000f2
:101b7c00a40188000200fa008720a90065488000b3
:101b8c0074488000848f520002003a008f20a90014
:101b9c000c00370075488000c48c20000482420081
:101bac00144f7800744880008402e800f40320008d
:101bbc0004826200744888009e4278000582fb0013
:101bcc00d41088000080fa003400f9004f02be00e7
:101bdc00004006000200fa0000fa07000002be00f6
:101bec00944b8800a54b88008a00070000027800ff
:101bfc00040f78001e027800e00f5200020035003e
:101c0c001e0278000c003700f4f907000003be0038
:101c1c00944b8000a54b80000403530085835b002c
:101c2c00744b8000854b8000840f5300858f5b00c4
:101c3c00edff39000082eb00040078000080fa0010
:101c4c00000006000400fa00008fbe001e02be0059
:101c5c00744b8800854b88000080fa000000060059
:101c6c000400fa00000f7800110798001e0278009b
:101c7c00444b88001e029000544b88000080fa00f0
:101c8c00000006000400fa00008fbe00c18c20008a
:101c9c0080882000f2ff07001e03be00443add00de
:101cac00cc32de00850272004432dd000401be003d
:101cbc0000442d00111c200053fc07000002be0044
:101ccc000400be00c7fb07000002be00020020009b
:101cdc0003f023000400be00d0fa07000002be008f
:101cec000400be00a1fb07000002be000402780045
:101cfc00f4108800040580000400a1000410a10069
:101d0c000420a00004058800c41080000460a10019
:101d1c000470a100c41088008f00a8008700a900df
:101d2c001822a900040580000440a1000450a10061
:101d3c000460a0000405880019e2a9008f20a90006
:101d4c008720a90017e2a8001942a8000080fa0019
:101d5c00000006000000fa0000000000544b800058
:101d6c0084229000544b800014229000848f5200e7
:101d7c00faff3a008f00a9008f20a9001942a90090
:101d8c0017e2a900444b8000454b8000952290003f
:101d9c00052298000080fa00000006000000fa00fe
:101dac00444b800084229000444b8000142290000d
:101dbc00048252000404b00084027800f403200072
:101dcc0004826200040078000080fa000000060023
:101ddc000000fa00444b800084229000444b8000a9
:101dec0014229000848f520002003a000082eb0013
:101dfc0005003700454b8000444b800014229000b6
:101e0c0065427a000482fb00040078000080fa002e
:101e1c00000006000200fa00444b8000842290006f
:101e2c00444b800014229000848f520002003a0030
:101e3c000082eb000d003700454b8000444b8000c6
:101e4c0014229000654f7a00444b8000454b800073
:101e5c00952290000503e800f5032000850263003d
:101e6c00152298009e4278000582fb000400780041
:101e7c000080fa00000006000800fa002007980015
:101e8c00310798000002eb00040f78000e003700b9
:101e9c0050ff070000027800140798001e02900003
:101eac00e00f52000d0035001e0290000442780035
:101ebc00ae029000844a78002e0290000402e800e2
:101ecc00240798001e0fe8003e0290009e02780046
:101edc00848f5200eeff3900010037000000000033
:101eec001e027800040078000080fa000000060052
:101efc000a00fa0040479800310798004207980002
:101f0c004e029000e00f520002003a000002eb007b
:101f1c001b0037000002eb00040f780013003700a1
:101f2c002cff070000027800140798001e02900096
:101f3c00e00f5200110035004e4290008402fb006d
:101f4c001e029000848f52000c0032001e02900082
:101f5c0004427800be029000844a78003e02900051
:101f6c000402e800340798001e0fe8004e029000af
:101f7c009e027800848f5200e9ff39001e0278001f
:101f8c00040078000080fa00000006000000fa004f
:101f9c0000000000644b8000e00f5200050032008e
:101fac00c51080000410200004826200e00f520073
:101fbc00f8ff32000002eb00644b88000080fa004e
:101fcc00000006000400fa0020479800544b8000e3
:101fdc00042290000402e80084027800f40320003c
:101fec00048f6200000000009e027800544b8000b9
:101ffc0014229000848f5200fbff3200554b80005e
:10200c00544b8000042290002e43900086727a007c
:10201c00544b80009e027800052298008720a8006f
:10202c008f20a80014002000644b880014002000ae
:10203c00040078000080fa00000006000200fa009c
:10204c00000f7800050037001e027800144278005b
:10205c001e0fe80004407800daff07001e0278002b
:10206c0014427800e04f5200f7ff3a000080fa006b
:10207c00000006002e00fa00401798005117980037
:10208c00426f98006702470005022000050f4200ce
:10209c009e0278000042eb00844a78004e6a900061
:1020ac00e14f520002003e00a4c0b300446f980000
:1020bc004e129000de12900014079800250798002d
:1020cc004e6a90000482fb00050020000401be0053
:1020dc004e109000de10900070fa07000002be0057
:1020ec0044179800551798001e029000044378007e
:1020fc004e129000844278004e6a90000482fb00dd
:10210c0005a2b9000402780004427800044253008e
:10211c00644798001e0fe9006e429000e94f520090
:10212c0003003c006e4290000443b00002003700f4
:10213c006e4290007443b0009e027800844a78008e
:10214c004e129000de129000e00f5200e08f5a0009
:10215c00d7ff3a00050037001e02780014427800c1
:10216c001e0fe8000440780096ff07001e0278005e
:10217c0014427800e04f5200f7ff3a000080fa005a
:10218c00000006001600fa00881f7800000f980067
:10219c00110f98004257980018c0b300f2ff2f009f
:1021ac00f3f724000e0890009e0890004cfa0700ec
:1021bc0000027800e00f520001003c000044eb00ec
:1021cc00e04f540003003200208b28009bff0700d7
:1021dc008100370018c0b300f2ff2f00f3f72c007a
:1021ec000e0890009e0890003bfa07000002780051
:1021fc00e00f5200010035000044eb00e04f5400aa
:10220c0003003200208b28008cff0700720037007f
:10221c0018c0b3006011b8000e0890009e08900022
:10222c002dfa070000027800e00f52000100350083
:10223c000044eb00e04f540007003200d0c2b30062
:10224c0060ff07000e0a90009e0a900005f0a200a5
:10225c00040f9800150f98000400200005f02300cf
:10226c00048fbe000042eb00444798000900370081
:10227c0002002000031224001e00be00c5f9070056
:10228c000002be00048fbe004e4290000442e800e3
:10229c0044479800ce4290004e52900084cf52009a
:1022ac00f3ff39001e01be000e0890009e0890003e
:1022bc005bf907000002be00040f9800150f980090
:1022cc000e0890009e08900028fa07000002be003d
:1022dc0054079800650798005e009000ee0090008f
:1022ec0040fa07000002be000401be000e08900078
:1022fc009e08900049f907000002be0034079800c0
:10230c00450798005e029000ee029000a2c0b30058
:10231c000400be0057ff07004e529000e04f5200e1
:10232c0022003200e0c2b30026ff07002000370075
:10233c0002002000031224003e009000ce0090000a
:10234c007dfa07000002be0034079800450798008c
:10235c003e009000ce009000e3f907000002be00a2
:10236c00740798007e029000cfa2de00a2c0b300da
:10237c000400be003fff07007e029000cfa2de00eb
:10238c000400be0014fa07000002be000401be00e7
:10239c003e009000ce00900020f907000002be0025
:1023ac003407980045079800010037000000000032
:1023bc004e5290000482fb000402ea004f22de0021
:1023cc0004427800ce5290008542e90045579800af
:1023dc00e04f5200d6ff3a004f0478000080fa001c
:1023ec00000006000800fa0060479800714798004a
:1023fc006e4290000482fb0084024200848028001c
:10240c0004824200140f78006e4290000482fb009c
:10241c00e57d280065437a00264798002e429000ff
:10242c00e04f5200190032002e4290000482fb0053
:10243c00840242000491200004824200940278003d
:10244c002507980083c0a8007e429000e04f520000
:10245c0006003a002e029000140278009e027200d0
:10246c002e029000050a7800060037002e0290001c
:10247c00940278001e82ea00848262002e02900090
:10248c00050a780083c0a900010037000000000095
:10249c000080fa00000006000200fa00004f7800ed
:1024ac0011e1a9009e4278000582fb006123b9006e
:1024bc000082eb008082eb000602420087824a0019
:1024cc003600200007002000860f5200878f5a002c
:1024dc001d003e00046001000300370008003700b7
:1024ec000d00370012003700240c80000400a100fe
:1024fc000410a1000420a100240c88001200370055
:10250c00540c80000400a1000410a1000420a100c0
:10251c00540c88000c003700840c80000400a100cf
:10252c000410a1000420a100840c880006003700d0
:10253c00b40c80000400a1000410a1000420a10030
:10254c00b40c8800000000000080fa0000000600b7
:10255c000a00fa00004f9800114f98000e4a9000a4
:10256c000482fb00a5852800654f7a000e4a900076
:10257c000482fb0084024200848028000482420012
:10258c0094027800150798000e4a90000482fb0014
:10259c00e57d280065437a00464798004e4290003e
:1025ac00e04f5200200032001e427800e04f5200f3
:1025bc00020032001e407800b7ff07004e42900028
:1025cc000482fb0084024200c49220000482420078
:1025dc00940278003507980083c0a8001e4a90002a
:1025ec00e04f520008003a003e029000940278003e
:1025fc001e0290000482ea00848262003e02900077
:10260c00050a7800060037003e029000940278001c
:10261c001e029000848272003e029000050a78002f
:10262c0083c0a90001003700000000000080fa0000
:10263c00000006000600fa00404798004e42900049
:10264c000482fb0084024200848028000482420041
:10265c00140f78004e4290000482fb00e57d2800a8
:10266c0065437a00264798002e429000e04f5200b6
:10267c0002003a000002eb000d0037002e429000e1
:10268c000482fb0084024200e49120000482420098
:10269c0014027800140278001e026200e00f52004f
:1026ac000200320014002000010037000002eb0091
:1026bc00040078000080fa00000006000200fa0016
:1026cc00004f78009e4278000582fb00e57d2800d3
:1026dc0065427a000482fb0084024200c49220000e
:1026ec0004824200940278001e4378000682fb00ac
:1026fc00e67d280066427a000482fb000403420057
:10270c00c4922000040243001402780014037800e1
:10271c009e4378000782fb008403420084802800db
:10272c00048243001402780004026b00840a7800cf
:10273c000080fa00000006000200fa00004f78004a
:10274c001e40780054e9b7000080fa000000060033
:10275c000400fa00204798002e4290000482fb00ef
:10276c0084024200a49320000482420014027800e8
:10277c000482ea00441588002e4290000482fb007b
:10278c00341588004495200014427800e04f520024
:10279c0006003a001415800004d0a10004e0a1004a
:1027ac0004f0a1001415880009003700449520009e
:1027bc0014427800e14f520005003a0014158000d5
:1027cc0004d0a10004e0a00004f0a10014158800be
:1027dc00041580000450a0000460a0000470a00048
:1027ec0004158800a042a80025158000f40f2e00c7
:1027fc008482620004102000048272002415880078
:10280c002515800004fc2f00048262003401b30003
:10281c0024158800a1e2a800a022a8000000000056
:10282c000415800061026200e00f5200fcff3200d0
:10283c0004148000040f7800a1e2a9000082eb00d0
:10284c00441588001e027800040078000080fa000d
:10285c00000006000400fa00004f780011079800f1
:10286c0011c0b3001e407800defe07009e029000ef
:10287c0034062000848f52000200360044062000eb
:10288c00140798001e4078000082fb004588280041
:10289c00654f7a001e427800e04f5200550032001e
:1028ac009e4278000582fb006123b9000082eb0098
:1028bc008082eb000602420087824a00360020002c
:1028cc0007002000860f5200878f5a0048003e00f8
:1028dc000460010003003700110037001f003700af
:1028ec002d0037001e009000000c8800549520002d
:1028fc0014427800e04f520036003a0014c0b30086
:10290c000440780055e9b700240c80000400a100b5
:10291c000410a0000420a000240c88003400370010
:10292c001e029000340c880064952000144278003c
:10293c00e04f520029003a0014c0b3000440780064
:10294c0056e9b700540c80000400a1000410a0004c
:10295c000420a000540c8800250037001e029000b3
:10296c00640c88007495200014427800e04f5200eb
:10297c001c003a0014c0b3000440780057e9b700bb
:10298c00840c80000400a1000410a0000420a0000e
:10299c00840c8800160037001e029000940c8800ee
:1029ac008495200014427800e04f52000f003a004a
:1029bc0014c0b3000440780058e9b700b40c800090
:1029cc000400a1000410a0000420a000b40c880096
:1029dc000700370000000000050037000000000071
:1029ec000300370000000000010037000000000069
:0c29fc0011e1a8000080fa0000000600b5
:020000040000fa
:102a08007609000008000000020000000000000035
:102a180000000000000000008e0900000200000015
:102a280000000000100900002a0000000200000059
:102a38000000c00002c60200cc02d2000200000062
:102a4800de02000000c20200c802ce0002d402006a
:102a58000000e00002000000c402ca0002d0020028
:102a6800d602000000e202003a090000200000003f
:102a7800020000000100020000040000080010002d
:102a8800002000004000800000000100000200005b
:102a98000400080000100000000000000000000012
:102aa800000800008800000002000000000000008c
:102ab800000000000000000000000000000000000e
:102ac80000000000000000000000000000000000fe
:102ad80000000000000000000000000000000000ee
:102ae80000000000000000000000000000000000de
:102af80000000000000000000000000000000000ce
:102b080000000000000000000000000000000000bd
:102b180000000000000000000000000000000000ad
:102b2800000000000000000000000000000000009d
:102b3800000000000000000000000000000000008d
:102b4800000000000000000000000000000000007d
:102b5800000000000000000000000000000000006d
:102b6800000000005a0900000e00000000000000ec
:102b78008808000088000000020000000000000033
:102b8800000000000000000000000000000000003d
:102b9800000000000000000000000000000000002d
:102ba800000000000000000000000000000000001d
:102bb800000000000000000000000000000000000d
:102bc80000000000000000000000000000000000fd
:102bd80000000000000000000000000000000000ed
:102be80000000000000000000000000000000000dd
:102bf80000000000000000000000000000000000cd
:102c080000000000000000000000000000000000bc
:102c180000000000000000000000000000000000ac
:102c2800000000000000000000000000000000009c
:102c380000000000680900000e000000000000000d
:102c48007e090000080000000200000000000000eb
:102c580000000000e80300008609000008000000ea
:102c680000000000900900000200000002000000bf
:082c7800000000000000000054
:020000040000fa
:102c80000000fa0011c0b30060c1b300d8fd070016
:102c900011c0b30030c1b300d5fd07008040eb0088
:102ca00010c1b300d2fd07008040eb0070c1b3003b
:102cb000cffd0700e4972000144278008040eb002d
:102cc00004407800cafd07008040eb0060c1b300fb
:102cd00022fe07008040eb0030c1b3001ffe07005a
:102ce000401f200001002000ecf5070042062000f4
:102cf00003002000b1202000e0c1b30078f60700f7
:102d00008007200001002000e4f5070002052000f4
:102d10000300200001312000e0c1b30070f607007d
:102d20000005200001002000dcf507000080fa000b
:102d3000000006000000fa0010c1b30040fe0700ca
:102d400000027800e00f520011003a00421f2000fc
:102d50000300200061102000e0c1b30060f607000e
:102d6000401f200001002000ccf50700e0c1b300a7
:102d7000a1f607000000000010c1b30030fe0700fc
:102d800000027800e00f5200fbff32001500370010
:102d900070c1b3002afe070000027800e00f520065
:102da00010003a00421f200003002000811820007c
:102db000e0c1b3004af60700401f200001002000d8
:102dc000b6f50700e0c1b3008bf607000000000075
:102dd00070c1b3001afe070000027800e00f520035
:0c2de000fbff32000080fa00000006003b
:020000040000fa
:102dec00f03fb1000180b10006003500ee03090090
:102dfc0000000000403fb1000180b100fbff3d002e
:102e0c001000b000203fb000020035000080090027
:082e1c000000000000000600a8
:020000040000fa
:102e24000000fa00c1f5070094ff0700c0ff070087
:042e3400feff370066
:020000040000fa
:0200000401f009
:04000000e3bf00005a
:020000040000fa
:0200000401f009
:04000400ff7f00007a
:020000040000fa
:0200000401f009
:04000800ffff0000f6
:020000040000fa
:0200000401f009
:04001400ffff0000ea
:020000040000fa
:0200000401f009
:04001800ffff0000e6
:00000001FF
